{
  "contractName": "Dex",
  "abi": [
    {
      "inputs": [],
      "stateMutability": "nonpayable",
      "type": "constructor"
    },
    {
      "anonymous": false,
      "inputs": [
        {
          "indexed": false,
          "internalType": "uint256",
          "name": "tradeId",
          "type": "uint256"
        },
        {
          "indexed": false,
          "internalType": "uint256",
          "name": "orderId",
          "type": "uint256"
        },
        {
          "indexed": true,
          "internalType": "bytes32",
          "name": "ticker",
          "type": "bytes32"
        },
        {
          "indexed": true,
          "internalType": "address",
          "name": "trader1",
          "type": "address"
        },
        {
          "indexed": true,
          "internalType": "address",
          "name": "trader2",
          "type": "address"
        },
        {
          "indexed": false,
          "internalType": "uint256",
          "name": "amount",
          "type": "uint256"
        },
        {
          "indexed": false,
          "internalType": "uint256",
          "name": "price",
          "type": "uint256"
        },
        {
          "indexed": false,
          "internalType": "uint256",
          "name": "date",
          "type": "uint256"
        }
      ],
      "name": "NewTrade",
      "type": "event"
    },
    {
      "inputs": [],
      "name": "admin",
      "outputs": [
        {
          "internalType": "address",
          "name": "",
          "type": "address"
        }
      ],
      "stateMutability": "view",
      "type": "function",
      "constant": true
    },
    {
      "inputs": [],
      "name": "nextOrderId",
      "outputs": [
        {
          "internalType": "uint256",
          "name": "",
          "type": "uint256"
        }
      ],
      "stateMutability": "view",
      "type": "function",
      "constant": true
    },
    {
      "inputs": [],
      "name": "nextTradeId",
      "outputs": [
        {
          "internalType": "uint256",
          "name": "",
          "type": "uint256"
        }
      ],
      "stateMutability": "view",
      "type": "function",
      "constant": true
    },
    {
      "inputs": [
        {
          "internalType": "uint256",
          "name": "",
          "type": "uint256"
        }
      ],
      "name": "tokenList",
      "outputs": [
        {
          "internalType": "bytes32",
          "name": "",
          "type": "bytes32"
        }
      ],
      "stateMutability": "view",
      "type": "function",
      "constant": true
    },
    {
      "inputs": [
        {
          "internalType": "bytes32",
          "name": "",
          "type": "bytes32"
        }
      ],
      "name": "tokens",
      "outputs": [
        {
          "internalType": "bytes32",
          "name": "ticker",
          "type": "bytes32"
        },
        {
          "internalType": "address",
          "name": "tokenAddress",
          "type": "address"
        }
      ],
      "stateMutability": "view",
      "type": "function",
      "constant": true
    },
    {
      "inputs": [
        {
          "internalType": "address",
          "name": "",
          "type": "address"
        },
        {
          "internalType": "bytes32",
          "name": "",
          "type": "bytes32"
        }
      ],
      "name": "traderBalances",
      "outputs": [
        {
          "internalType": "uint256",
          "name": "",
          "type": "uint256"
        }
      ],
      "stateMutability": "view",
      "type": "function",
      "constant": true
    },
    {
      "inputs": [
        {
          "internalType": "bytes32",
          "name": "ticker",
          "type": "bytes32"
        },
        {
          "internalType": "enum Dex.Side",
          "name": "side",
          "type": "uint8"
        }
      ],
      "name": "getOrders",
      "outputs": [
        {
          "components": [
            {
              "internalType": "uint256",
              "name": "id",
              "type": "uint256"
            },
            {
              "internalType": "address",
              "name": "trader",
              "type": "address"
            },
            {
              "internalType": "enum Dex.Side",
              "name": "side",
              "type": "uint8"
            },
            {
              "internalType": "bytes32",
              "name": "ticker",
              "type": "bytes32"
            },
            {
              "internalType": "uint256",
              "name": "amount",
              "type": "uint256"
            },
            {
              "internalType": "uint256",
              "name": "filled",
              "type": "uint256"
            },
            {
              "internalType": "uint256",
              "name": "price",
              "type": "uint256"
            },
            {
              "internalType": "uint256",
              "name": "date",
              "type": "uint256"
            }
          ],
          "internalType": "struct Dex.Order[]",
          "name": "",
          "type": "tuple[]"
        }
      ],
      "stateMutability": "view",
      "type": "function",
      "constant": true
    },
    {
      "inputs": [],
      "name": "getTokens",
      "outputs": [
        {
          "components": [
            {
              "internalType": "bytes32",
              "name": "ticker",
              "type": "bytes32"
            },
            {
              "internalType": "address",
              "name": "tokenAddress",
              "type": "address"
            }
          ],
          "internalType": "struct Dex.Token[]",
          "name": "",
          "type": "tuple[]"
        }
      ],
      "stateMutability": "view",
      "type": "function",
      "constant": true
    },
    {
      "inputs": [
        {
          "internalType": "bytes32",
          "name": "ticker",
          "type": "bytes32"
        },
        {
          "internalType": "address",
          "name": "tokenAddress",
          "type": "address"
        }
      ],
      "name": "addToken",
      "outputs": [],
      "stateMutability": "nonpayable",
      "type": "function"
    },
    {
      "inputs": [
        {
          "internalType": "uint256",
          "name": "amount",
          "type": "uint256"
        },
        {
          "internalType": "bytes32",
          "name": "ticker",
          "type": "bytes32"
        }
      ],
      "name": "deposit",
      "outputs": [],
      "stateMutability": "nonpayable",
      "type": "function"
    },
    {
      "inputs": [
        {
          "internalType": "uint256",
          "name": "amount",
          "type": "uint256"
        },
        {
          "internalType": "bytes32",
          "name": "ticker",
          "type": "bytes32"
        }
      ],
      "name": "withdraw",
      "outputs": [],
      "stateMutability": "nonpayable",
      "type": "function"
    },
    {
      "inputs": [
        {
          "internalType": "bytes32",
          "name": "ticker",
          "type": "bytes32"
        },
        {
          "internalType": "uint256",
          "name": "amount",
          "type": "uint256"
        },
        {
          "internalType": "uint256",
          "name": "price",
          "type": "uint256"
        },
        {
          "internalType": "enum Dex.Side",
          "name": "side",
          "type": "uint8"
        }
      ],
      "name": "createLimitOrder",
      "outputs": [],
      "stateMutability": "nonpayable",
      "type": "function"
    },
    {
      "inputs": [
        {
          "internalType": "bytes32",
          "name": "ticker",
          "type": "bytes32"
        },
        {
          "internalType": "uint256",
          "name": "amount",
          "type": "uint256"
        },
        {
          "internalType": "enum Dex.Side",
          "name": "side",
          "type": "uint8"
        }
      ],
      "name": "createMarketOrder",
      "outputs": [],
      "stateMutability": "nonpayable",
      "type": "function"
    }
  ],
  "bytecode": "0x608060405234801561001057600080fd5b5033600460006101000a81548173ffffffffffffffffffffffffffffffffffffffff021916908373ffffffffffffffffffffffffffffffffffffffff1602179055506133d1806100616000396000f3fe608060405234801561001057600080fd5b50600436106100cf5760003560e01c80639776aacf1161008c578063aa6ca80811610066578063aa6ca80814610225578063c9630cb014610243578063d9c0c9501461025f578063f851a4401461027b576100cf565b80639776aacf146101bd5780639ead7222146101d9578063a8d2021a14610209576100cf565b80632a58b330146100d457806346e9658b146100f257806372ce957e146101225780637f2c624614610152578063813ad0831461016e578063904194a31461018c575b600080fd5b6100dc610299565b6040516100e99190612753565b60405180910390f35b61010c600480360381019061010791906127ce565b61029f565b6040516101199190612a36565b60405180910390f35b61013c60048036038101906101379190612a84565b610403565b6040516101499190612753565b60405180910390f35b61016c60048036038101906101679190612af0565b610428565b005b61017661160f565b6040516101839190612753565b60405180910390f35b6101a660048036038101906101a19190612b43565b611615565b6040516101b4929190612b8e565b60405180910390f35b6101d760048036038101906101d29190612bb7565b611659565b005b6101f360048036038101906101ee9190612bf7565b6117a7565b6040516102009190612c24565b60405180910390f35b610223600480360381019061021e9190612c3f565b6117cb565b005b61022d611a74565b60405161023a9190612d5d565b60405180910390f35b61025d60048036038101906102589190612c3f565b611bcd565b005b61027960048036038101906102749190612d7f565b611de5565b005b61028361269f565b6040516102909190612de6565b60405180910390f35b60055481565b60606003600084815260200190815260200160002060008360018111156102c9576102c861288a565b5b8152602001908152602001600020805480602002602001604051908101604052809291908181526020016000905b828210156103f7578382906000526020600020906007020160405180610100016040529081600082015481526020016001820160009054906101000a900473ffffffffffffffffffffffffffffffffffffffff1673ffffffffffffffffffffffffffffffffffffffff1673ffffffffffffffffffffffffffffffffffffffff1681526020016001820160149054906101000a900460ff1660018111156103a05761039f61288a565b5b60018111156103b2576103b161288a565b5b815260200160028201548152602001600382015481526020016004820154815260200160058201548152602001600682015481525050815260200190600101906102f7565b50505050905092915050565b6002602052816000526040600020602052806000526040600020600091509150505481565b82600073ffffffffffffffffffffffffffffffffffffffff1660008083815260200190815260200160002060010160009054906101000a900473ffffffffffffffffffffffffffffffffffffffff1673ffffffffffffffffffffffffffffffffffffffff1614156104ce576040517f08c379a00000000000000000000000000000000000000000000000000000000081526004016104c590612e5e565b60405180910390fd5b837f4441490000000000000000000000000000000000000000000000000000000000811415610532576040517f08c379a000000000000000000000000000000000000000000000000000000000815260040161052990612eca565b60405180910390fd5b6001808111156105455761054461288a565b5b8360018111156105585761055761288a565b5b14156105f25783600260003373ffffffffffffffffffffffffffffffffffffffff1673ffffffffffffffffffffffffffffffffffffffff16815260200190815260200160002060008781526020019081526020016000205410156105f1576040517f08c379a00000000000000000000000000000000000000000000000000000000081526004016105e890612f36565b60405180910390fd5b5b600060036000878152602001908152602001600020600080600181111561061c5761061b61288a565b5b86600181111561062f5761062e61288a565b5b1461063b57600061063e565b60015b60018111156106505761064f61288a565b5b815260200190815260200160002090506000808690505b82805490508210801561067a5750600081115b1561138e5760006106dc84848154811061069757610696612f56565b5b9060005260206000209060070201600401548585815481106106bc576106bb612f56565b5b9060005260206000209060070201600301546126c590919063ffffffff16565b905060008183116106ed57826106ef565b815b905061070481846126c590919063ffffffff16565b925061073d8186868154811061071d5761071c612f56565b5b9060005260206000209060070201600401546126db90919063ffffffff16565b8585815481106107505761074f612f56565b5b9060005260206000209060070201600401819055503373ffffffffffffffffffffffffffffffffffffffff1685858154811061078f5761078e612f56565b5b906000526020600020906007020160010160009054906101000a900473ffffffffffffffffffffffffffffffffffffffff1673ffffffffffffffffffffffffffffffffffffffff168b7fdb0c486e680ba8026643e6a85f8d157b5e7bcd4b32b54d564542570a9eb2041660065489898154811061080f5761080e612f56565b5b906000526020600020906007020160000154868b8b8154811061083557610834612f56565b5b90600052602060002090600702016005015442604051610859959493929190612f85565b60405180910390a46001808111156108745761087361288a565b5b8860018111156108875761088661288a565b5b1415610d66576108f081600260003373ffffffffffffffffffffffffffffffffffffffff1673ffffffffffffffffffffffffffffffffffffffff16815260200190815260200160002060008d8152602001908152602001600020546126c590919063ffffffff16565b600260003373ffffffffffffffffffffffffffffffffffffffff1673ffffffffffffffffffffffffffffffffffffffff16815260200190815260200160002060008c8152602001908152602001600020819055506109fd61097e86868154811061095d5761095c612f56565b5b906000526020600020906007020160050154836126f190919063ffffffff16565b600260003373ffffffffffffffffffffffffffffffffffffffff1673ffffffffffffffffffffffffffffffffffffffff16815260200190815260200160002060007f44414900000000000000000000000000000000000000000000000000000000008152602001908152602001600020546126db90919063ffffffff16565b600260003373ffffffffffffffffffffffffffffffffffffffff1673ffffffffffffffffffffffffffffffffffffffff16815260200190815260200160002060007f4441490000000000000000000000000000000000000000000000000000000000815260200190815260200160002081905550610b188160026000888881548110610a8c57610a8b612f56565b5b906000526020600020906007020160010160009054906101000a900473ffffffffffffffffffffffffffffffffffffffff1673ffffffffffffffffffffffffffffffffffffffff1673ffffffffffffffffffffffffffffffffffffffff16815260200190815260200160002060008d8152602001908152602001600020546126db90919063ffffffff16565b60026000878781548110610b2f57610b2e612f56565b5b906000526020600020906007020160010160009054906101000a900473ffffffffffffffffffffffffffffffffffffffff1673ffffffffffffffffffffffffffffffffffffffff1673ffffffffffffffffffffffffffffffffffffffff16815260200190815260200160002060008c815260200190815260200160002081905550610cad610bea868681548110610bc957610bc8612f56565b5b906000526020600020906007020160050154836126f190919063ffffffff16565b60026000888881548110610c0157610c00612f56565b5b906000526020600020906007020160010160009054906101000a900473ffffffffffffffffffffffffffffffffffffffff1673ffffffffffffffffffffffffffffffffffffffff1673ffffffffffffffffffffffffffffffffffffffff16815260200190815260200160002060007f44414900000000000000000000000000000000000000000000000000000000008152602001908152602001600020546126c590919063ffffffff16565b60026000878781548110610cc457610cc3612f56565b5b906000526020600020906007020160010160009054906101000a900473ffffffffffffffffffffffffffffffffffffffff1673ffffffffffffffffffffffffffffffffffffffff1673ffffffffffffffffffffffffffffffffffffffff16815260200190815260200160002060007f44414900000000000000000000000000000000000000000000000000000000008152602001908152602001600020819055505b60006001811115610d7a57610d7961288a565b5b886001811115610d8d57610d8c61288a565b5b141561135557610dca858581548110610da957610da8612f56565b5b906000526020600020906007020160050154826126f190919063ffffffff16565b600260003373ffffffffffffffffffffffffffffffffffffffff1673ffffffffffffffffffffffffffffffffffffffff16815260200190815260200160002060007f44414900000000000000000000000000000000000000000000000000000000008152602001908152602001600020541015610e7c576040517f08c379a0000000000000000000000000000000000000000000000000000000008152600401610e7390613024565b60405180910390fd5b610edf81600260003373ffffffffffffffffffffffffffffffffffffffff1673ffffffffffffffffffffffffffffffffffffffff16815260200190815260200160002060008d8152602001908152602001600020546126db90919063ffffffff16565b600260003373ffffffffffffffffffffffffffffffffffffffff1673ffffffffffffffffffffffffffffffffffffffff16815260200190815260200160002060008c815260200190815260200160002081905550610fec610f6d868681548110610f4c57610f4b612f56565b5b906000526020600020906007020160050154836126f190919063ffffffff16565b600260003373ffffffffffffffffffffffffffffffffffffffff1673ffffffffffffffffffffffffffffffffffffffff16815260200190815260200160002060007f44414900000000000000000000000000000000000000000000000000000000008152602001908152602001600020546126c590919063ffffffff16565b600260003373ffffffffffffffffffffffffffffffffffffffff1673ffffffffffffffffffffffffffffffffffffffff16815260200190815260200160002060007f4441490000000000000000000000000000000000000000000000000000000000815260200190815260200160002081905550611107816002600088888154811061107b5761107a612f56565b5b906000526020600020906007020160010160009054906101000a900473ffffffffffffffffffffffffffffffffffffffff1673ffffffffffffffffffffffffffffffffffffffff1673ffffffffffffffffffffffffffffffffffffffff16815260200190815260200160002060008d8152602001908152602001600020546126c590919063ffffffff16565b6002600087878154811061111e5761111d612f56565b5b906000526020600020906007020160010160009054906101000a900473ffffffffffffffffffffffffffffffffffffffff1673ffffffffffffffffffffffffffffffffffffffff1673ffffffffffffffffffffffffffffffffffffffff16815260200190815260200160002060008c81526020019081526020016000208190555061129c6111d98686815481106111b8576111b7612f56565b5b906000526020600020906007020160050154836126f190919063ffffffff16565b600260008888815481106111f0576111ef612f56565b5b906000526020600020906007020160010160009054906101000a900473ffffffffffffffffffffffffffffffffffffffff1673ffffffffffffffffffffffffffffffffffffffff1673ffffffffffffffffffffffffffffffffffffffff16815260200190815260200160002060007f44414900000000000000000000000000000000000000000000000000000000008152602001908152602001600020546126db90919063ffffffff16565b600260008787815481106112b3576112b2612f56565b5b906000526020600020906007020160010160009054906101000a900473ffffffffffffffffffffffffffffffffffffffff1673ffffffffffffffffffffffffffffffffffffffff1673ffffffffffffffffffffffffffffffffffffffff16815260200190815260200160002060007f44414900000000000000000000000000000000000000000000000000000000008152602001908152602001600020819055505b61136b60016006546126db90919063ffffffff16565b6006819055506113856001856126db90919063ffffffff16565b93505050610667565b600091505b8280549050821080156113ed57508282815481106113b4576113b3612f56565b5b9060005260206000209060070201600301548383815481106113d9576113d8612f56565b5b906000526020600020906007020160040154145b156116055760008290505b600184805490506114099190613073565b811015611554578360018261141e91906130a7565b8154811061142f5761142e612f56565b5b90600052602060002090600702018482815481106114505761144f612f56565b5b9060005260206000209060070201600082015481600001556001820160009054906101000a900473ffffffffffffffffffffffffffffffffffffffff168160010160006101000a81548173ffffffffffffffffffffffffffffffffffffffff021916908373ffffffffffffffffffffffffffffffffffffffff1602179055506001820160149054906101000a900460ff168160010160146101000a81548160ff021916908360018111156115075761150661288a565b5b02179055506002820154816002015560038201548160030155600482015481600401556005820154816005015560068201548160060155905050808061154c906130fd565b9150506113f8565b508280548061156657611565613146565b5b60019003818190600052602060002090600702016000808201600090556001820160006101000a81549073ffffffffffffffffffffffffffffffffffffffff02191690556001820160146101000a81549060ff021916905560028201600090556003820160009055600482016000905560058201600090556006820160009055505090556115fe6001836126db90919063ffffffff16565b9150611393565b5050505050505050565b60065481565b60006020528060005260406000206000915090508060000154908060010160009054906101000a900473ffffffffffffffffffffffffffffffffffffffff16905082565b600460009054906101000a900473ffffffffffffffffffffffffffffffffffffffff1673ffffffffffffffffffffffffffffffffffffffff163373ffffffffffffffffffffffffffffffffffffffff16146116e9576040517f08c379a00000000000000000000000000000000000000000000000000000000081526004016116e0906131c1565b60405180910390fd5b60405180604001604052808381526020018273ffffffffffffffffffffffffffffffffffffffff168152506000808481526020019081526020016000206000820151816000015560208201518160010160006101000a81548173ffffffffffffffffffffffffffffffffffffffff021916908373ffffffffffffffffffffffffffffffffffffffff16021790555090505060018290806001815401808255809150506001900390600052602060002001600090919091909150555050565b600181815481106117b757600080fd5b906000526020600020016000915090505481565b80600073ffffffffffffffffffffffffffffffffffffffff1660008083815260200190815260200160002060010160009054906101000a900473ffffffffffffffffffffffffffffffffffffffff1673ffffffffffffffffffffffffffffffffffffffff161415611871576040517f08c379a000000000000000000000000000000000000000000000000000000000815260040161186890612e5e565b60405180910390fd5b82600260003373ffffffffffffffffffffffffffffffffffffffff1673ffffffffffffffffffffffffffffffffffffffff1681526020019081526020016000206000848152602001908152602001600020541015611904576040517f08c379a00000000000000000000000000000000000000000000000000000000081526004016118fb9061322d565b60405180910390fd5b61196783600260003373ffffffffffffffffffffffffffffffffffffffff1673ffffffffffffffffffffffffffffffffffffffff1681526020019081526020016000206000858152602001908152602001600020546126c590919063ffffffff16565b600260003373ffffffffffffffffffffffffffffffffffffffff1673ffffffffffffffffffffffffffffffffffffffff16815260200190815260200160002060008481526020019081526020016000208190555060008083815260200190815260200160002060010160009054906101000a900473ffffffffffffffffffffffffffffffffffffffff1673ffffffffffffffffffffffffffffffffffffffff1663a9059cbb33856040518363ffffffff1660e01b8152600401611a2b92919061324d565b6020604051808303816000875af1158015611a4a573d6000803e3d6000fd5b505050506040513d601f19601f82011682018060405250810190611a6e91906132ae565b50505050565b6060600060018054905067ffffffffffffffff811115611a9757611a966132db565b5b604051908082528060200260200182016040528015611ad057816020015b611abd612707565b815260200190600190039081611ab55790505b50905060005b600180549050811015611bc557604051806040016040528060008060018581548110611b0557611b04612f56565b5b9060005260206000200154815260200190815260200160002060000154815260200160008060018581548110611b3e57611b3d612f56565b5b9060005260206000200154815260200190815260200160002060010160009054906101000a900473ffffffffffffffffffffffffffffffffffffffff1673ffffffffffffffffffffffffffffffffffffffff16815250828281518110611ba757611ba6612f56565b5b60200260200101819052508080611bbd906130fd565b915050611ad6565b508091505090565b80600073ffffffffffffffffffffffffffffffffffffffff1660008083815260200190815260200160002060010160009054906101000a900473ffffffffffffffffffffffffffffffffffffffff1673ffffffffffffffffffffffffffffffffffffffff161415611c73576040517f08c379a0000000000000000000000000000000000000000000000000000000008152600401611c6a90612e5e565b60405180910390fd5b60008083815260200190815260200160002060010160009054906101000a900473ffffffffffffffffffffffffffffffffffffffff1673ffffffffffffffffffffffffffffffffffffffff166323b872dd3330866040518463ffffffff1660e01b8152600401611ce59392919061330a565b6020604051808303816000875af1158015611d04573d6000803e3d6000fd5b505050506040513d601f19601f82011682018060405250810190611d2891906132ae565b50611d8c83600260003373ffffffffffffffffffffffffffffffffffffffff1673ffffffffffffffffffffffffffffffffffffffff1681526020019081526020016000206000858152602001908152602001600020546126db90919063ffffffff16565b600260003373ffffffffffffffffffffffffffffffffffffffff1673ffffffffffffffffffffffffffffffffffffffff168152602001908152602001600020600084815260200190815260200160002081905550505050565b837f4441490000000000000000000000000000000000000000000000000000000000811415611e49576040517f08c379a0000000000000000000000000000000000000000000000000000000008152600401611e4090612eca565b60405180910390fd5b84600073ffffffffffffffffffffffffffffffffffffffff1660008083815260200190815260200160002060010160009054906101000a900473ffffffffffffffffffffffffffffffffffffffff1673ffffffffffffffffffffffffffffffffffffffff161415611eef576040517f08c379a0000000000000000000000000000000000000000000000000000000008152600401611ee690612e5e565b60405180910390fd5b600180811115611f0257611f0161288a565b5b836001811115611f1557611f1461288a565b5b1415611fb35784600260003373ffffffffffffffffffffffffffffffffffffffff1673ffffffffffffffffffffffffffffffffffffffff1681526020019081526020016000206000888152602001908152602001600020541015611fae576040517f08c379a0000000000000000000000000000000000000000000000000000000008152600401611fa590612f36565b60405180910390fd5b612079565b611fc684866126f190919063ffffffff16565b600260003373ffffffffffffffffffffffffffffffffffffffff1673ffffffffffffffffffffffffffffffffffffffff16815260200190815260200160002060007f44414900000000000000000000000000000000000000000000000000000000008152602001908152602001600020541015612078576040517f08c379a000000000000000000000000000000000000000000000000000000000815260040161206f90613024565b60405180910390fd5b5b60006003600088815260200190815260200160002060008560018111156120a3576120a261288a565b5b815260200190815260200160002090508060405180610100016040528060055481526020013373ffffffffffffffffffffffffffffffffffffffff1681526020018660018111156120f7576120f661288a565b5b8152602001898152602001888152602001600081526020018781526020014281525090806001815401808255809150506001900390600052602060002090600702016000909190919091506000820151816000015560208201518160010160006101000a81548173ffffffffffffffffffffffffffffffffffffffff021916908373ffffffffffffffffffffffffffffffffffffffff16021790555060408201518160010160146101000a81548160ff021916908360018111156121be576121bd61288a565b5b0217905550606082015181600201556080820151816003015560a0820151816004015560c0820151816005015560e08201518160060155505060008082805490501161220b57600061221d565b6001828054905061221c9190613073565b5b90505b6000811115612679576000600181111561223d5761223c61288a565b5b8560018111156122505761224f61288a565b5b1480156122b0575081818154811061226b5761226a612f56565b5b9060005260206000209060070201600501548260018361228b9190613073565b8154811061229c5761229b612f56565b5b906000526020600020906007020160050154115b156122ba57612679565b6001808111156122cd576122cc61288a565b5b8560018111156122e0576122df61288a565b5b14801561234057508181815481106122fb576122fa612f56565b5b9060005260206000209060070201600501548260018361231b9190613073565b8154811061232c5761232b612f56565b5b906000526020600020906007020160050154105b1561234a57612679565b60008260018361235a9190613073565b8154811061236b5761236a612f56565b5b906000526020600020906007020160405180610100016040529081600082015481526020016001820160009054906101000a900473ffffffffffffffffffffffffffffffffffffffff1673ffffffffffffffffffffffffffffffffffffffff1673ffffffffffffffffffffffffffffffffffffffff1681526020016001820160149054906101000a900460ff16600181111561240a5761240961288a565b5b600181111561241c5761241b61288a565b5b815260200160028201548152602001600382015481526020016004820154815260200160058201548152602001600682015481525050905082828154811061246757612466612f56565b5b9060005260206000209060070201836001846124839190613073565b8154811061249457612493612f56565b5b9060005260206000209060070201600082015481600001556001820160009054906101000a900473ffffffffffffffffffffffffffffffffffffffff168160010160006101000a81548173ffffffffffffffffffffffffffffffffffffffff021916908373ffffffffffffffffffffffffffffffffffffffff1602179055506001820160149054906101000a900460ff168160010160146101000a81548160ff0219169083600181111561254b5761254a61288a565b5b021790555060028201548160020155600382015481600301556004820154816004015560058201548160050155600682015481600601559050508083838154811061259957612598612f56565b5b90600052602060002090600702016000820151816000015560208201518160010160006101000a81548173ffffffffffffffffffffffffffffffffffffffff021916908373ffffffffffffffffffffffffffffffffffffffff16021790555060408201518160010160146101000a81548160ff021916908360018111156126235761262261288a565b5b0217905550606082015181600201556080820151816003015560a0820151816004015560c0820151816005015560e082015181600601559050506126716001836126c590919063ffffffff16565b915050612220565b61268f60016005546126db90919063ffffffff16565b6005819055505050505050505050565b600460009054906101000a900473ffffffffffffffffffffffffffffffffffffffff1681565b600081836126d39190613073565b905092915050565b600081836126e991906130a7565b905092915050565b600081836126ff9190613341565b905092915050565b604051806040016040528060008019168152602001600073ffffffffffffffffffffffffffffffffffffffff1681525090565b6000819050919050565b61274d8161273a565b82525050565b60006020820190506127686000830184612744565b92915050565b600080fd5b6000819050919050565b61278681612773565b811461279157600080fd5b50565b6000813590506127a38161277d565b92915050565b600281106127b657600080fd5b50565b6000813590506127c8816127a9565b92915050565b600080604083850312156127e5576127e461276e565b5b60006127f385828601612794565b9250506020612804858286016127b9565b9150509250929050565b600081519050919050565b600082825260208201905092915050565b6000819050602082019050919050565b6128438161273a565b82525050565b600073ffffffffffffffffffffffffffffffffffffffff82169050919050565b600061287482612849565b9050919050565b61288481612869565b82525050565b7f4e487b7100000000000000000000000000000000000000000000000000000000600052602160045260246000fd5b600281106128ca576128c961288a565b5b50565b60008190506128db826128b9565b919050565b60006128eb826128cd565b9050919050565b6128fb816128e0565b82525050565b61290a81612773565b82525050565b61010082016000820151612927600085018261283a565b50602082015161293a602085018261287b565b50604082015161294d60408501826128f2565b5060608201516129606060850182612901565b506080820151612973608085018261283a565b5060a082015161298660a085018261283a565b5060c082015161299960c085018261283a565b5060e08201516129ac60e085018261283a565b50505050565b60006129be8383612910565b6101008301905092915050565b6000602082019050919050565b60006129e38261280e565b6129ed8185612819565b93506129f88361282a565b8060005b83811015612a29578151612a1088826129b2565b9750612a1b836129cb565b9250506001810190506129fc565b5085935050505092915050565b60006020820190508181036000830152612a5081846129d8565b905092915050565b612a6181612869565b8114612a6c57600080fd5b50565b600081359050612a7e81612a58565b92915050565b60008060408385031215612a9b57612a9a61276e565b5b6000612aa985828601612a6f565b9250506020612aba85828601612794565b9150509250929050565b612acd8161273a565b8114612ad857600080fd5b50565b600081359050612aea81612ac4565b92915050565b600080600060608486031215612b0957612b0861276e565b5b6000612b1786828701612794565b9350506020612b2886828701612adb565b9250506040612b39868287016127b9565b9150509250925092565b600060208284031215612b5957612b5861276e565b5b6000612b6784828501612794565b91505092915050565b612b7981612773565b82525050565b612b8881612869565b82525050565b6000604082019050612ba36000830185612b70565b612bb06020830184612b7f565b9392505050565b60008060408385031215612bce57612bcd61276e565b5b6000612bdc85828601612794565b9250506020612bed85828601612a6f565b9150509250929050565b600060208284031215612c0d57612c0c61276e565b5b6000612c1b84828501612adb565b91505092915050565b6000602082019050612c396000830184612b70565b92915050565b60008060408385031215612c5657612c5561276e565b5b6000612c6485828601612adb565b9250506020612c7585828601612794565b9150509250929050565b600081519050919050565b600082825260208201905092915050565b6000819050602082019050919050565b604082016000820151612cc16000850182612901565b506020820151612cd4602085018261287b565b50505050565b6000612ce68383612cab565b60408301905092915050565b6000602082019050919050565b6000612d0a82612c7f565b612d148185612c8a565b9350612d1f83612c9b565b8060005b83811015612d50578151612d378882612cda565b9750612d4283612cf2565b925050600181019050612d23565b5085935050505092915050565b60006020820190508181036000830152612d778184612cff565b905092915050565b60008060008060808587031215612d9957612d9861276e565b5b6000612da787828801612794565b9450506020612db887828801612adb565b9350506040612dc987828801612adb565b9250506060612dda878288016127b9565b91505092959194509250565b6000602082019050612dfb6000830184612b7f565b92915050565b600082825260208201905092915050565b7f7468697320746f6b656e20646f6573206e6f7420657869737400000000000000600082015250565b6000612e48601983612e01565b9150612e5382612e12565b602082019050919050565b60006020820190508181036000830152612e7781612e3b565b9050919050565b7f63616e6e6f742074726164652044414900000000000000000000000000000000600082015250565b6000612eb4601083612e01565b9150612ebf82612e7e565b602082019050919050565b60006020820190508181036000830152612ee381612ea7565b9050919050565b7f746f6b656e2062616c616e636520746f6f206c6f770000000000000000000000600082015250565b6000612f20601583612e01565b9150612f2b82612eea565b602082019050919050565b60006020820190508181036000830152612f4f81612f13565b9050919050565b7f4e487b7100000000000000000000000000000000000000000000000000000000600052603260045260246000fd5b600060a082019050612f9a6000830188612744565b612fa76020830187612744565b612fb46040830186612744565b612fc16060830185612744565b612fce6080830184612744565b9695505050505050565b7f6461692062616c616e636520746f6f206c6f7700000000000000000000000000600082015250565b600061300e601383612e01565b915061301982612fd8565b602082019050919050565b6000602082019050818103600083015261303d81613001565b9050919050565b7f4e487b7100000000000000000000000000000000000000000000000000000000600052601160045260246000fd5b600061307e8261273a565b91506130898361273a565b92508282101561309c5761309b613044565b5b828203905092915050565b60006130b28261273a565b91506130bd8361273a565b9250827fffffffffffffffffffffffffffffffffffffffffffffffffffffffffffffffff038211156130f2576130f1613044565b5b828201905092915050565b60006131088261273a565b91507fffffffffffffffffffffffffffffffffffffffffffffffffffffffffffffffff82141561313b5761313a613044565b5b600182019050919050565b7f4e487b7100000000000000000000000000000000000000000000000000000000600052603160045260246000fd5b7f6f6e6c792061646d696e00000000000000000000000000000000000000000000600082015250565b60006131ab600a83612e01565b91506131b682613175565b602082019050919050565b600060208201905081810360008301526131da8161319e565b9050919050565b7f62616c616e636520746f6f206c6f770000000000000000000000000000000000600082015250565b6000613217600f83612e01565b9150613222826131e1565b602082019050919050565b600060208201905081810360008301526132468161320a565b9050919050565b60006040820190506132626000830185612b7f565b61326f6020830184612744565b9392505050565b60008115159050919050565b61328b81613276565b811461329657600080fd5b50565b6000815190506132a881613282565b92915050565b6000602082840312156132c4576132c361276e565b5b60006132d284828501613299565b91505092915050565b7f4e487b7100000000000000000000000000000000000000000000000000000000600052604160045260246000fd5b600060608201905061331f6000830186612b7f565b61332c6020830185612b7f565b6133396040830184612744565b949350505050565b600061334c8261273a565b91506133578361273a565b9250817fffffffffffffffffffffffffffffffffffffffffffffffffffffffffffffffff04831182151516156133905761338f613044565b5b82820290509291505056fea2646970667358221220f3cfa5283e77e3aba3e15613dcc59819d64c111e48ffbe16f8d3842a1433556164736f6c634300080b0033",
  "immutableReferences": {},
  "source": "//SPDX-License-Identifier: UNLICENSED\npragma solidity ^0.8.0;\npragma experimental ABIEncoderV2;\nimport \"@openzeppelin/contracts/token/ERC20/ERC20.sol\";\nimport \"@openzeppelin/contracts/utils/math/SafeMath.sol\";\n\ncontract Dex{\n    using SafeMath for uint;\n    struct Token{\n        bytes32 ticker;\n        address tokenAddress;\n    }\n    enum Side{\n        BUY,\n        SELL\n    }\n    struct Order{\n        uint id;\n        address trader;\n        Side side;\n        bytes32 ticker;\n        uint amount;\n        uint filled;\n        uint price;\n        uint date;\n    }\n\n    mapping(bytes32 => Token) public tokens;\n    bytes32[] public tokenList;\n    mapping(address => mapping(bytes32 => uint)) public traderBalances;\n    mapping(bytes32 => mapping(uint => Order[])) orderBook;\n    address public admin;\n    uint public nextOrderId;\n    uint public nextTradeId;\n    bytes32 constant DAI = bytes32('DAI');\n\n    event NewTrade(\n        uint tradeId,\n        uint orderId,\n        bytes32 indexed ticker,\n        address indexed trader1,\n        address indexed trader2,\n        uint amount,\n        uint price,\n        uint date\n    );\n\n    constructor() {\n        admin = msg.sender;\n    }\n    function getOrders(\n    bytes32 ticker, \n    Side side) \n    external \n    view\n    returns(Order[] memory) {\n        return orderBook[ticker][uint(side)];\n    }\n    function getTokens() \n      external \n      view \n      returns(Token[] memory) {\n      Token[] memory _tokens = new Token[](tokenList.length);\n      for (uint i = 0; i < tokenList.length; i++) {\n        _tokens[i] = Token(\n          tokens[tokenList[i]].ticker,\n          tokens[tokenList[i]].tokenAddress\n        );\n      }\n      return _tokens;\n    }\n    function addToken(bytes32 ticker, address tokenAddress) external onlyAdmin(){\n        tokens[ticker] = Token(ticker,tokenAddress);\n        tokenList.push(ticker);\n    }\n\n    function deposit(uint amount, bytes32 ticker) external tokenExist(ticker) {\n        IERC20(tokens[ticker].tokenAddress).transferFrom(msg.sender, address(this), amount);\n        traderBalances[msg.sender][ticker] = traderBalances[msg.sender][ticker].add(amount);\n    }\n\n    function withdraw(uint amount, bytes32 ticker) external tokenExist(ticker){\n        require(traderBalances[msg.sender][ticker] >=amount,\"balance too low\");\n        traderBalances[msg.sender][ticker] = traderBalances[msg.sender][ticker].sub(amount);\n        IERC20(tokens[ticker].tokenAddress).transfer(msg.sender, amount);\n    }\n\n    function createLimitOrder(bytes32 ticker, uint amount, uint price, Side side) external tokenIsNotDai(ticker) tokenExist(ticker) {\n        if(side == Side.SELL){\n            require(traderBalances[msg.sender][ticker] >= amount, 'token balance too low');\n        }else{\n            require(traderBalances[msg.sender][DAI] >= amount.mul(price), 'dai balance too low');\n        }\n        Order[] storage orders = orderBook[ticker][uint(side)];\n        orders.push(Order(nextOrderId,msg.sender,side,ticker,amount,0,price,block.timestamp));\n        //bubble sort to do sizetime sorting\n        uint i = orders.length > 0 ? orders.length - 1 : 0;\n        while(i > 0){\n            if(side == Side.BUY && orders[i - 1].price > orders[i].price){\n                break;\n            }\n            if(side == Side.SELL && orders[i - 1].price < orders[i].price){\n                break;\n            }\n            Order memory order = orders[i - 1];\n            orders[i-1] = orders[i];\n            orders[i] = order;\n            i = i.sub(1);\n        }\n        nextOrderId = nextOrderId.add(1);\n    }\n\n    function createMarketOrder(bytes32 ticker, uint amount, Side side) tokenExist(ticker) tokenIsNotDai(ticker) external{\n        if(side == Side.SELL){\n            require(traderBalances[msg.sender][ticker] >= amount, 'token balance too low');\n        }\n        Order[] storage orders = orderBook[ticker][uint(side == Side.BUY ? Side.SELL : Side.BUY)];\n        uint i;\n        uint remaining = amount;\n        while(i < orders.length && remaining > 0){\n            uint available = orders[i].amount.sub(orders[i].filled);\n            uint matched = (remaining > available) ? available : remaining;\n            remaining = remaining.sub(matched);\n            orders[i].filled = orders[i].filled.add(matched);\n            emit NewTrade(nextTradeId, orders[i].id, ticker, orders[i].trader,msg.sender, matched, orders[i].price, block.timestamp);\n            if(side == Side.SELL){\n                traderBalances[msg.sender][ticker] = traderBalances[msg.sender][ticker].sub(matched);\n                traderBalances[msg.sender][DAI] = traderBalances[msg.sender][DAI].add(matched.mul(orders[i].price)); \n                traderBalances[orders[i].trader][ticker] = traderBalances[orders[i].trader][ticker].add(matched);\n                traderBalances[orders[i].trader][DAI] = traderBalances[orders[i].trader][DAI].sub(matched.mul(orders[i].price)); \n            }\n            if(side == Side.BUY){\n                require(traderBalances[msg.sender][DAI] >= matched.mul(orders[i].price), 'dai balance too low');\n                traderBalances[msg.sender][ticker] = traderBalances[msg.sender][ticker].add(matched);\n                traderBalances[msg.sender][DAI] = traderBalances[msg.sender][DAI].sub(matched.mul(orders[i].price)); \n                traderBalances[orders[i].trader][ticker] = traderBalances[orders[i].trader][ticker].sub(matched);\n                traderBalances[orders[i].trader][DAI] = traderBalances[orders[i].trader][DAI].add(matched.mul(orders[i].price)); \n            }\n            nextTradeId = nextTradeId.add(1);\n            i = i.add(1);\n            \n        }\n        i = 0;\n        while(i < orders.length && orders[i].filled == orders[i].amount){\n            for(uint j = i; j < orders.length - 1; j++){\n                orders[j] = orders[j + 1];\n            }\n            orders.pop();\n            i = i.add(1);\n        }\n    }\n\n\n    modifier tokenIsNotDai(bytes32 ticker){\n        require(ticker != DAI, 'cannot trade DAI');\n        _;\n    }\n\n    modifier tokenExist(bytes32 ticker){\n        require(tokens[ticker].tokenAddress != address(0), \"this token does not exist\");\n        _;\n    }\n\n    modifier onlyAdmin(){\n        require(msg.sender == admin, 'only admin');\n        _;\n    }\n\n}",
  "sourcePath": "/Users/dexter/Documents/GitHub/dex-eth/contracts/Dex.sol",
  "compiler": {
    "name": "solc",
    "version": "0.8.11+commit.d7f03943.Emscripten.clang"
  },
  "schemaVersion": "3.4.4",
  "updatedAt": "2022-01-28T13:55:54.671Z",
  "networkType": "ethereum",
  "devdoc": {
    "kind": "dev",
    "methods": {},
    "version": 1
  },
  "userdoc": {
    "kind": "user",
    "methods": {},
    "version": 1
  }
}