{
  "contractName": "Dex",
  "abi": [
    {
      "inputs": [],
      "stateMutability": "nonpayable",
      "type": "constructor"
    },
    {
      "anonymous": false,
      "inputs": [
        {
          "indexed": false,
          "internalType": "uint256",
          "name": "tradeId",
          "type": "uint256"
        },
        {
          "indexed": false,
          "internalType": "uint256",
          "name": "orderId",
          "type": "uint256"
        },
        {
          "indexed": true,
          "internalType": "bytes32",
          "name": "ticker",
          "type": "bytes32"
        },
        {
          "indexed": true,
          "internalType": "address",
          "name": "trader1",
          "type": "address"
        },
        {
          "indexed": true,
          "internalType": "address",
          "name": "trader2",
          "type": "address"
        },
        {
          "indexed": false,
          "internalType": "uint256",
          "name": "amount",
          "type": "uint256"
        },
        {
          "indexed": false,
          "internalType": "uint256",
          "name": "price",
          "type": "uint256"
        },
        {
          "indexed": false,
          "internalType": "uint256",
          "name": "date",
          "type": "uint256"
        }
      ],
      "name": "NewTrade",
      "type": "event"
    },
    {
      "inputs": [],
      "name": "admin",
      "outputs": [
        {
          "internalType": "address",
          "name": "",
          "type": "address"
        }
      ],
      "stateMutability": "view",
      "type": "function",
      "constant": true
    },
    {
      "inputs": [],
      "name": "nextOrderId",
      "outputs": [
        {
          "internalType": "uint256",
          "name": "",
          "type": "uint256"
        }
      ],
      "stateMutability": "view",
      "type": "function",
      "constant": true
    },
    {
      "inputs": [],
      "name": "nextTradeId",
      "outputs": [
        {
          "internalType": "uint256",
          "name": "",
          "type": "uint256"
        }
      ],
      "stateMutability": "view",
      "type": "function",
      "constant": true
    },
    {
      "inputs": [
        {
          "internalType": "uint256",
          "name": "",
          "type": "uint256"
        }
      ],
      "name": "tokenList",
      "outputs": [
        {
          "internalType": "bytes32",
          "name": "",
          "type": "bytes32"
        }
      ],
      "stateMutability": "view",
      "type": "function",
      "constant": true
    },
    {
      "inputs": [
        {
          "internalType": "bytes32",
          "name": "",
          "type": "bytes32"
        }
      ],
      "name": "tokens",
      "outputs": [
        {
          "internalType": "bytes32",
          "name": "ticker",
          "type": "bytes32"
        },
        {
          "internalType": "address",
          "name": "tokenAddress",
          "type": "address"
        }
      ],
      "stateMutability": "view",
      "type": "function",
      "constant": true
    },
    {
      "inputs": [
        {
          "internalType": "address",
          "name": "",
          "type": "address"
        },
        {
          "internalType": "bytes32",
          "name": "",
          "type": "bytes32"
        }
      ],
      "name": "traderBalances",
      "outputs": [
        {
          "internalType": "uint256",
          "name": "",
          "type": "uint256"
        }
      ],
      "stateMutability": "view",
      "type": "function",
      "constant": true
    },
    {
      "inputs": [
        {
          "internalType": "bytes32",
          "name": "ticker",
          "type": "bytes32"
        },
        {
          "internalType": "enum Dex.Side",
          "name": "side",
          "type": "uint8"
        }
      ],
      "name": "getOrders",
      "outputs": [
        {
          "components": [
            {
              "internalType": "uint256",
              "name": "id",
              "type": "uint256"
            },
            {
              "internalType": "address",
              "name": "trader",
              "type": "address"
            },
            {
              "internalType": "enum Dex.Side",
              "name": "side",
              "type": "uint8"
            },
            {
              "internalType": "bytes32",
              "name": "ticker",
              "type": "bytes32"
            },
            {
              "internalType": "uint256",
              "name": "amount",
              "type": "uint256"
            },
            {
              "internalType": "uint256",
              "name": "filled",
              "type": "uint256"
            },
            {
              "internalType": "uint256",
              "name": "price",
              "type": "uint256"
            },
            {
              "internalType": "uint256",
              "name": "date",
              "type": "uint256"
            }
          ],
          "internalType": "struct Dex.Order[]",
          "name": "",
          "type": "tuple[]"
        }
      ],
      "stateMutability": "view",
      "type": "function",
      "constant": true
    },
    {
      "inputs": [],
      "name": "getTokens",
      "outputs": [
        {
          "components": [
            {
              "internalType": "bytes32",
              "name": "ticker",
              "type": "bytes32"
            },
            {
              "internalType": "address",
              "name": "tokenAddress",
              "type": "address"
            }
          ],
          "internalType": "struct Dex.Token[]",
          "name": "",
          "type": "tuple[]"
        }
      ],
      "stateMutability": "view",
      "type": "function",
      "constant": true
    },
    {
      "inputs": [
        {
          "internalType": "bytes32",
          "name": "ticker",
          "type": "bytes32"
        },
        {
          "internalType": "address",
          "name": "tokenAddress",
          "type": "address"
        }
      ],
      "name": "addToken",
      "outputs": [],
      "stateMutability": "nonpayable",
      "type": "function"
    },
    {
      "inputs": [
        {
          "internalType": "uint256",
          "name": "amount",
          "type": "uint256"
        },
        {
          "internalType": "bytes32",
          "name": "ticker",
          "type": "bytes32"
        }
      ],
      "name": "deposit",
      "outputs": [],
      "stateMutability": "nonpayable",
      "type": "function"
    },
    {
      "inputs": [
        {
          "internalType": "uint256",
          "name": "amount",
          "type": "uint256"
        },
        {
          "internalType": "bytes32",
          "name": "ticker",
          "type": "bytes32"
        }
      ],
      "name": "withdraw",
      "outputs": [],
      "stateMutability": "nonpayable",
      "type": "function"
    },
    {
      "inputs": [
        {
          "internalType": "bytes32",
          "name": "ticker",
          "type": "bytes32"
        },
        {
          "internalType": "uint256",
          "name": "amount",
          "type": "uint256"
        },
        {
          "internalType": "uint256",
          "name": "price",
          "type": "uint256"
        },
        {
          "internalType": "enum Dex.Side",
          "name": "side",
          "type": "uint8"
        }
      ],
      "name": "createLimitOrder",
      "outputs": [],
      "stateMutability": "nonpayable",
      "type": "function"
    },
    {
      "inputs": [
        {
          "internalType": "bytes32",
          "name": "ticker",
          "type": "bytes32"
        },
        {
          "internalType": "uint256",
          "name": "amount",
          "type": "uint256"
        },
        {
          "internalType": "enum Dex.Side",
          "name": "side",
          "type": "uint8"
        }
      ],
      "name": "createMarketOrder",
      "outputs": [],
      "stateMutability": "nonpayable",
      "type": "function"
    }
  ],
  "bytecode": "0x608060405234801561001057600080fd5b5033600460006101000a81548173ffffffffffffffffffffffffffffffffffffffff021916908373ffffffffffffffffffffffffffffffffffffffff160217905550613c4b806100616000396000f3fe608060405234801561001057600080fd5b50600436106100cf5760003560e01c80639776aacf1161008c578063aa6ca80811610066578063aa6ca80814610225578063c9630cb014610243578063d9c0c9501461025f578063f851a4401461027b576100cf565b80639776aacf146101bd5780639ead7222146101d9578063a8d2021a14610209576100cf565b80632a58b330146100d457806346e9658b146100f257806372ce957e146101225780637f2c624614610152578063813ad0831461016e578063904194a31461018c575b600080fd5b6100dc610299565b6040516100e991906138a2565b60405180910390f35b61010c600480360381019061010791906131e5565b61029f565b604051610119919061375a565b60405180910390f35b61013c6004803603810190610137919061311b565b610475565b60405161014991906138a2565b60405180910390f35b61016c60048036038101906101679190613221565b61049a565b005b610176611bb3565b60405161018391906138a2565b60405180910390f35b6101a660048036038101906101a19190613180565b611bb9565b6040516101b49291906137b9565b60405180910390f35b6101d760048036038101906101d291906131a9565b611bfd565b005b6101f360048036038101906101ee91906132d3565b611d4b565b604051610200919061379e565b60405180910390f35b610223600480360381019061021e91906132fc565b611d6f565b005b61022d612027565b60405161023a919061377c565b60405180910390f35b61025d600480360381019061025891906132fc565b612218565b005b61027960048036038101906102749190613270565b61243f565b005b610283613017565b60405161029091906136df565b60405180910390f35b60055481565b60606003600084815260200190815260200160002060008360018111156102ef577f4e487b7100000000000000000000000000000000000000000000000000000000600052602160045260246000fd5b8152602001908152602001600020805480602002602001604051908101604052809291908181526020016000905b82821015610469578382906000526020600020906007020160405180610100016040529081600082015481526020016001820160009054906101000a900473ffffffffffffffffffffffffffffffffffffffff1673ffffffffffffffffffffffffffffffffffffffff1673ffffffffffffffffffffffffffffffffffffffff1681526020016001820160149054906101000a900460ff1660018111156103ec577f4e487b7100000000000000000000000000000000000000000000000000000000600052602160045260246000fd5b6001811115610424577f4e487b7100000000000000000000000000000000000000000000000000000000600052602160045260246000fd5b8152602001600282015481526020016003820154815260200160048201548152602001600582015481526020016006820154815250508152602001906001019061031d565b50505050905092915050565b6002602052816000526040600020602052806000526040600020600091509150505481565b82600073ffffffffffffffffffffffffffffffffffffffff1660008083815260200190815260200160002060010160009054906101000a900473ffffffffffffffffffffffffffffffffffffffff1673ffffffffffffffffffffffffffffffffffffffff161415610540576040517f08c379a000000000000000000000000000000000000000000000000000000000815260040161053790613882565b60405180910390fd5b837f44414900000000000000000000000000000000000000000000000000000000008114156105a4576040517f08c379a000000000000000000000000000000000000000000000000000000000815260040161059b90613822565b60405180910390fd5b6001808111156105dd577f4e487b7100000000000000000000000000000000000000000000000000000000600052602160045260246000fd5b836001811115610616577f4e487b7100000000000000000000000000000000000000000000000000000000600052602160045260246000fd5b14156106b05783600260003373ffffffffffffffffffffffffffffffffffffffff1673ffffffffffffffffffffffffffffffffffffffff16815260200190815260200160002060008781526020019081526020016000205410156106af576040517f08c379a00000000000000000000000000000000000000000000000000000000081526004016106a690613842565b60405180910390fd5b5b6000600360008781526020019081526020016000206000806001811115610700577f4e487b7100000000000000000000000000000000000000000000000000000000600052602160045260246000fd5b866001811115610739577f4e487b7100000000000000000000000000000000000000000000000000000000600052602160045260246000fd5b14610745576000610748565b60015b6001811115610780577f4e487b7100000000000000000000000000000000000000000000000000000000600052602160045260246000fd5b815260200190815260200160002090506000808690505b8280549050821080156107aa5750600081115b1561184e5760006108588484815481106107ed577f4e487b7100000000000000000000000000000000000000000000000000000000600052603260045260246000fd5b906000526020600020906007020160040154858581548110610838577f4e487b7100000000000000000000000000000000000000000000000000000000600052603260045260246000fd5b90600052602060002090600702016003015461303d90919063ffffffff16565b90506000818311610869578261086b565b815b9050610880818461303d90919063ffffffff16565b92506108df818686815481106108bf577f4e487b7100000000000000000000000000000000000000000000000000000000600052603260045260246000fd5b90600052602060002090600702016004015461305390919063ffffffff16565b858581548110610918577f4e487b7100000000000000000000000000000000000000000000000000000000600052603260045260246000fd5b9060005260206000209060070201600401819055503373ffffffffffffffffffffffffffffffffffffffff1685858154811061097d577f4e487b7100000000000000000000000000000000000000000000000000000000600052603260045260246000fd5b906000526020600020906007020160010160009054906101000a900473ffffffffffffffffffffffffffffffffffffffff1673ffffffffffffffffffffffffffffffffffffffff168b7fdb0c486e680ba8026643e6a85f8d157b5e7bcd4b32b54d564542570a9eb20416600654898981548110610a23577f4e487b7100000000000000000000000000000000000000000000000000000000600052603260045260246000fd5b906000526020600020906007020160000154868b8b81548110610a6f577f4e487b7100000000000000000000000000000000000000000000000000000000600052603260045260246000fd5b90600052602060002090600702016005015442604051610a939594939291906138bd565b60405180910390a4600180811115610ad4577f4e487b7100000000000000000000000000000000000000000000000000000000600052602160045260246000fd5b886001811115610b0d577f4e487b7100000000000000000000000000000000000000000000000000000000600052602160045260246000fd5b14156110d057610b7681600260003373ffffffffffffffffffffffffffffffffffffffff1673ffffffffffffffffffffffffffffffffffffffff16815260200190815260200160002060008d81526020019081526020016000205461303d90919063ffffffff16565b600260003373ffffffffffffffffffffffffffffffffffffffff1673ffffffffffffffffffffffffffffffffffffffff16815260200190815260200160002060008c815260200190815260200160002081905550610ca9610c2a868681548110610c09577f4e487b7100000000000000000000000000000000000000000000000000000000600052603260045260246000fd5b9060005260206000209060070201600501548361306990919063ffffffff16565b600260003373ffffffffffffffffffffffffffffffffffffffff1673ffffffffffffffffffffffffffffffffffffffff16815260200190815260200160002060007f444149000000000000000000000000000000000000000000000000000000000081526020019081526020016000205461305390919063ffffffff16565b600260003373ffffffffffffffffffffffffffffffffffffffff1673ffffffffffffffffffffffffffffffffffffffff16815260200190815260200160002060007f4441490000000000000000000000000000000000000000000000000000000000815260200190815260200160002081905550610dea8160026000888881548110610d5e577f4e487b7100000000000000000000000000000000000000000000000000000000600052603260045260246000fd5b906000526020600020906007020160010160009054906101000a900473ffffffffffffffffffffffffffffffffffffffff1673ffffffffffffffffffffffffffffffffffffffff1673ffffffffffffffffffffffffffffffffffffffff16815260200190815260200160002060008d81526020019081526020016000205461305390919063ffffffff16565b60026000878781548110610e27577f4e487b7100000000000000000000000000000000000000000000000000000000600052603260045260246000fd5b906000526020600020906007020160010160009054906101000a900473ffffffffffffffffffffffffffffffffffffffff1673ffffffffffffffffffffffffffffffffffffffff1673ffffffffffffffffffffffffffffffffffffffff16815260200190815260200160002060008c815260200190815260200160002081905550610ff1610f08868681548110610ee7577f4e487b7100000000000000000000000000000000000000000000000000000000600052603260045260246000fd5b9060005260206000209060070201600501548361306990919063ffffffff16565b60026000888881548110610f45577f4e487b7100000000000000000000000000000000000000000000000000000000600052603260045260246000fd5b906000526020600020906007020160010160009054906101000a900473ffffffffffffffffffffffffffffffffffffffff1673ffffffffffffffffffffffffffffffffffffffff1673ffffffffffffffffffffffffffffffffffffffff16815260200190815260200160002060007f444149000000000000000000000000000000000000000000000000000000000081526020019081526020016000205461303d90919063ffffffff16565b6002600087878154811061102e577f4e487b7100000000000000000000000000000000000000000000000000000000600052603260045260246000fd5b906000526020600020906007020160010160009054906101000a900473ffffffffffffffffffffffffffffffffffffffff1673ffffffffffffffffffffffffffffffffffffffff1673ffffffffffffffffffffffffffffffffffffffff16815260200190815260200160002060007f44414900000000000000000000000000000000000000000000000000000000008152602001908152602001600020819055505b6000600181111561110a577f4e487b7100000000000000000000000000000000000000000000000000000000600052602160045260246000fd5b886001811115611143577f4e487b7100000000000000000000000000000000000000000000000000000000600052602160045260246000fd5b1415611815576111a6858581548110611185577f4e487b7100000000000000000000000000000000000000000000000000000000600052603260045260246000fd5b9060005260206000209060070201600501548261306990919063ffffffff16565b600260003373ffffffffffffffffffffffffffffffffffffffff1673ffffffffffffffffffffffffffffffffffffffff16815260200190815260200160002060007f44414900000000000000000000000000000000000000000000000000000000008152602001908152602001600020541015611258576040517f08c379a000000000000000000000000000000000000000000000000000000000815260040161124f90613862565b60405180910390fd5b6112bb81600260003373ffffffffffffffffffffffffffffffffffffffff1673ffffffffffffffffffffffffffffffffffffffff16815260200190815260200160002060008d81526020019081526020016000205461305390919063ffffffff16565b600260003373ffffffffffffffffffffffffffffffffffffffff1673ffffffffffffffffffffffffffffffffffffffff16815260200190815260200160002060008c8152602001908152602001600020819055506113ee61136f86868154811061134e577f4e487b7100000000000000000000000000000000000000000000000000000000600052603260045260246000fd5b9060005260206000209060070201600501548361306990919063ffffffff16565b600260003373ffffffffffffffffffffffffffffffffffffffff1673ffffffffffffffffffffffffffffffffffffffff16815260200190815260200160002060007f444149000000000000000000000000000000000000000000000000000000000081526020019081526020016000205461303d90919063ffffffff16565b600260003373ffffffffffffffffffffffffffffffffffffffff1673ffffffffffffffffffffffffffffffffffffffff16815260200190815260200160002060007f444149000000000000000000000000000000000000000000000000000000000081526020019081526020016000208190555061152f81600260008888815481106114a3577f4e487b7100000000000000000000000000000000000000000000000000000000600052603260045260246000fd5b906000526020600020906007020160010160009054906101000a900473ffffffffffffffffffffffffffffffffffffffff1673ffffffffffffffffffffffffffffffffffffffff1673ffffffffffffffffffffffffffffffffffffffff16815260200190815260200160002060008d81526020019081526020016000205461303d90919063ffffffff16565b6002600087878154811061156c577f4e487b7100000000000000000000000000000000000000000000000000000000600052603260045260246000fd5b906000526020600020906007020160010160009054906101000a900473ffffffffffffffffffffffffffffffffffffffff1673ffffffffffffffffffffffffffffffffffffffff1673ffffffffffffffffffffffffffffffffffffffff16815260200190815260200160002060008c81526020019081526020016000208190555061173661164d86868154811061162c577f4e487b7100000000000000000000000000000000000000000000000000000000600052603260045260246000fd5b9060005260206000209060070201600501548361306990919063ffffffff16565b6002600088888154811061168a577f4e487b7100000000000000000000000000000000000000000000000000000000600052603260045260246000fd5b906000526020600020906007020160010160009054906101000a900473ffffffffffffffffffffffffffffffffffffffff1673ffffffffffffffffffffffffffffffffffffffff1673ffffffffffffffffffffffffffffffffffffffff16815260200190815260200160002060007f444149000000000000000000000000000000000000000000000000000000000081526020019081526020016000205461305390919063ffffffff16565b60026000878781548110611773577f4e487b7100000000000000000000000000000000000000000000000000000000600052603260045260246000fd5b906000526020600020906007020160010160009054906101000a900473ffffffffffffffffffffffffffffffffffffffff1673ffffffffffffffffffffffffffffffffffffffff1673ffffffffffffffffffffffffffffffffffffffff16815260200190815260200160002060007f44414900000000000000000000000000000000000000000000000000000000008152602001908152602001600020819055505b61182b600160065461305390919063ffffffff16565b60068190555061184560018561305390919063ffffffff16565b93505050610797565b600091505b8280549050821080156118f9575082828154811061189a577f4e487b7100000000000000000000000000000000000000000000000000000000600052603260045260246000fd5b9060005260206000209060070201600301548383815481106118e5577f4e487b7100000000000000000000000000000000000000000000000000000000600052603260045260246000fd5b906000526020600020906007020160040154145b15611ba95760008290505b600184805490506119159190613a43565b811015611ad2578360018261192a9190613993565b81548110611961577f4e487b7100000000000000000000000000000000000000000000000000000000600052603260045260246000fd5b90600052602060002090600702018482815481106119a8577f4e487b7100000000000000000000000000000000000000000000000000000000600052603260045260246000fd5b9060005260206000209060070201600082015481600001556001820160009054906101000a900473ffffffffffffffffffffffffffffffffffffffff168160010160006101000a81548173ffffffffffffffffffffffffffffffffffffffff021916908373ffffffffffffffffffffffffffffffffffffffff1602179055506001820160149054906101000a900460ff168160010160146101000a81548160ff02191690836001811115611a85577f4e487b7100000000000000000000000000000000000000000000000000000000600052602160045260246000fd5b021790555060028201548160020155600382015481600301556004820154816004015560058201548160050155600682015481600601559050508080611aca90613aee565b915050611904565b5082805480611b0a577f4e487b7100000000000000000000000000000000000000000000000000000000600052603160045260246000fd5b60019003818190600052602060002090600702016000808201600090556001820160006101000a81549073ffffffffffffffffffffffffffffffffffffffff02191690556001820160146101000a81549060ff02191690556002820160009055600382016000905560048201600090556005820160009055600682016000905550509055611ba260018361305390919063ffffffff16565b9150611853565b5050505050505050565b60065481565b60006020528060005260406000206000915090508060000154908060010160009054906101000a900473ffffffffffffffffffffffffffffffffffffffff16905082565b600460009054906101000a900473ffffffffffffffffffffffffffffffffffffffff1673ffffffffffffffffffffffffffffffffffffffff163373ffffffffffffffffffffffffffffffffffffffff1614611c8d576040517f08c379a0000000000000000000000000000000000000000000000000000000008152600401611c8490613802565b60405180910390fd5b60405180604001604052808381526020018273ffffffffffffffffffffffffffffffffffffffff168152506000808481526020019081526020016000206000820151816000015560208201518160010160006101000a81548173ffffffffffffffffffffffffffffffffffffffff021916908373ffffffffffffffffffffffffffffffffffffffff16021790555090505060018290806001815401808255809150506001900390600052602060002001600090919091909150555050565b60018181548110611d5b57600080fd5b906000526020600020016000915090505481565b80600073ffffffffffffffffffffffffffffffffffffffff1660008083815260200190815260200160002060010160009054906101000a900473ffffffffffffffffffffffffffffffffffffffff1673ffffffffffffffffffffffffffffffffffffffff161415611e15576040517f08c379a0000000000000000000000000000000000000000000000000000000008152600401611e0c90613882565b60405180910390fd5b82600260003373ffffffffffffffffffffffffffffffffffffffff1673ffffffffffffffffffffffffffffffffffffffff1681526020019081526020016000206000848152602001908152602001600020541015611ea8576040517f08c379a0000000000000000000000000000000000000000000000000000000008152600401611e9f906137e2565b60405180910390fd5b611f0b83600260003373ffffffffffffffffffffffffffffffffffffffff1673ffffffffffffffffffffffffffffffffffffffff16815260200190815260200160002060008581526020019081526020016000205461303d90919063ffffffff16565b600260003373ffffffffffffffffffffffffffffffffffffffff1673ffffffffffffffffffffffffffffffffffffffff16815260200190815260200160002060008481526020019081526020016000208190555060008083815260200190815260200160002060010160009054906101000a900473ffffffffffffffffffffffffffffffffffffffff1673ffffffffffffffffffffffffffffffffffffffff1663a9059cbb33856040518363ffffffff1660e01b8152600401611fcf929190613731565b602060405180830381600087803b158015611fe957600080fd5b505af1158015611ffd573d6000803e3d6000fd5b505050506040513d601f19601f820116820180604052508101906120219190613157565b50505050565b6060600060018054905067ffffffffffffffff811115612070577f4e487b7100000000000000000000000000000000000000000000000000000000600052604160045260246000fd5b6040519080825280602002602001820160405280156120a957816020015b61209661307f565b81526020019060019003908161208e5790505b50905060005b60018054905081101561221057604051806040016040528060008060018581548110612104577f4e487b7100000000000000000000000000000000000000000000000000000000600052603260045260246000fd5b9060005260206000200154815260200190815260200160002060000154815260200160008060018581548110612163577f4e487b7100000000000000000000000000000000000000000000000000000000600052603260045260246000fd5b9060005260206000200154815260200190815260200160002060010160009054906101000a900473ffffffffffffffffffffffffffffffffffffffff1673ffffffffffffffffffffffffffffffffffffffff168152508282815181106121f2577f4e487b7100000000000000000000000000000000000000000000000000000000600052603260045260246000fd5b6020026020010181905250808061220890613aee565b9150506120af565b508091505090565b80600073ffffffffffffffffffffffffffffffffffffffff1660008083815260200190815260200160002060010160009054906101000a900473ffffffffffffffffffffffffffffffffffffffff1673ffffffffffffffffffffffffffffffffffffffff1614156122be576040517f08c379a00000000000000000000000000000000000000000000000000000000081526004016122b590613882565b60405180910390fd5b60008083815260200190815260200160002060010160009054906101000a900473ffffffffffffffffffffffffffffffffffffffff1673ffffffffffffffffffffffffffffffffffffffff166323b872dd3330866040518463ffffffff1660e01b8152600401612330939291906136fa565b602060405180830381600087803b15801561234a57600080fd5b505af115801561235e573d6000803e3d6000fd5b505050506040513d601f19601f820116820180604052508101906123829190613157565b506123e683600260003373ffffffffffffffffffffffffffffffffffffffff1673ffffffffffffffffffffffffffffffffffffffff16815260200190815260200160002060008581526020019081526020016000205461305390919063ffffffff16565b600260003373ffffffffffffffffffffffffffffffffffffffff1673ffffffffffffffffffffffffffffffffffffffff168152602001908152602001600020600084815260200190815260200160002081905550505050565b837f44414900000000000000000000000000000000000000000000000000000000008114156124a3576040517f08c379a000000000000000000000000000000000000000000000000000000000815260040161249a90613822565b60405180910390fd5b84600073ffffffffffffffffffffffffffffffffffffffff1660008083815260200190815260200160002060010160009054906101000a900473ffffffffffffffffffffffffffffffffffffffff1673ffffffffffffffffffffffffffffffffffffffff161415612549576040517f08c379a000000000000000000000000000000000000000000000000000000000815260040161254090613882565b60405180910390fd5b600180811115612582577f4e487b7100000000000000000000000000000000000000000000000000000000600052602160045260246000fd5b8360018111156125bb577f4e487b7100000000000000000000000000000000000000000000000000000000600052602160045260246000fd5b14156126595784600260003373ffffffffffffffffffffffffffffffffffffffff1673ffffffffffffffffffffffffffffffffffffffff1681526020019081526020016000206000888152602001908152602001600020541015612654576040517f08c379a000000000000000000000000000000000000000000000000000000000815260040161264b90613842565b60405180910390fd5b61271f565b61266c848661306990919063ffffffff16565b600260003373ffffffffffffffffffffffffffffffffffffffff1673ffffffffffffffffffffffffffffffffffffffff16815260200190815260200160002060007f4441490000000000000000000000000000000000000000000000000000000000815260200190815260200160002054101561271e576040517f08c379a000000000000000000000000000000000000000000000000000000000815260040161271590613862565b60405180910390fd5b5b600060036000888152602001908152602001600020600085600181111561276f577f4e487b7100000000000000000000000000000000000000000000000000000000600052602160045260246000fd5b815260200190815260200160002090508060405180610100016040528060055481526020013373ffffffffffffffffffffffffffffffffffffffff1681526020018660018111156127e9577f4e487b7100000000000000000000000000000000000000000000000000000000600052602160045260246000fd5b8152602001898152602001888152602001600081526020018781526020014281525090806001815401808255809150506001900390600052602060002090600702016000909190919091506000820151816000015560208201518160010160006101000a81548173ffffffffffffffffffffffffffffffffffffffff021916908373ffffffffffffffffffffffffffffffffffffffff16021790555060408201518160010160146101000a81548160ff021916908360018111156128d6577f4e487b7100000000000000000000000000000000000000000000000000000000600052602160045260246000fd5b0217905550606082015181600201556080820151816003015560a0820151816004015560c0820151816005015560e082015181600601555050600080828054905011612923576000612935565b600182805490506129349190613a43565b5b90505b6000811115612ff1576000600181111561297b577f4e487b7100000000000000000000000000000000000000000000000000000000600052602160045260246000fd5b8560018111156129b4577f4e487b7100000000000000000000000000000000000000000000000000000000600052602160045260246000fd5b148015612a6057508181815481106129f5577f4e487b7100000000000000000000000000000000000000000000000000000000600052603260045260246000fd5b90600052602060002090600702016005015482600183612a159190613a43565b81548110612a4c577f4e487b7100000000000000000000000000000000000000000000000000000000600052603260045260246000fd5b906000526020600020906007020160050154115b15612a6a57612ff1565b600180811115612aa3577f4e487b7100000000000000000000000000000000000000000000000000000000600052602160045260246000fd5b856001811115612adc577f4e487b7100000000000000000000000000000000000000000000000000000000600052602160045260246000fd5b148015612b885750818181548110612b1d577f4e487b7100000000000000000000000000000000000000000000000000000000600052603260045260246000fd5b90600052602060002090600702016005015482600183612b3d9190613a43565b81548110612b74577f4e487b7100000000000000000000000000000000000000000000000000000000600052603260045260246000fd5b906000526020600020906007020160050154105b15612b9257612ff1565b600082600183612ba29190613a43565b81548110612bd9577f4e487b7100000000000000000000000000000000000000000000000000000000600052603260045260246000fd5b906000526020600020906007020160405180610100016040529081600082015481526020016001820160009054906101000a900473ffffffffffffffffffffffffffffffffffffffff1673ffffffffffffffffffffffffffffffffffffffff1673ffffffffffffffffffffffffffffffffffffffff1681526020016001820160149054906101000a900460ff166001811115612c9e577f4e487b7100000000000000000000000000000000000000000000000000000000600052602160045260246000fd5b6001811115612cd6577f4e487b7100000000000000000000000000000000000000000000000000000000600052602160045260246000fd5b8152602001600282015481526020016003820154815260200160048201548152602001600582015481526020016006820154815250509050828281548110612d47577f4e487b7100000000000000000000000000000000000000000000000000000000600052603260045260246000fd5b906000526020600020906007020183600184612d639190613a43565b81548110612d9a577f4e487b7100000000000000000000000000000000000000000000000000000000600052603260045260246000fd5b9060005260206000209060070201600082015481600001556001820160009054906101000a900473ffffffffffffffffffffffffffffffffffffffff168160010160006101000a81548173ffffffffffffffffffffffffffffffffffffffff021916908373ffffffffffffffffffffffffffffffffffffffff1602179055506001820160149054906101000a900460ff168160010160146101000a81548160ff02191690836001811115612e77577f4e487b7100000000000000000000000000000000000000000000000000000000600052602160045260246000fd5b0217905550600282015481600201556003820154816003015560048201548160040155600582015481600501556006820154816006015590505080838381548110612eeb577f4e487b7100000000000000000000000000000000000000000000000000000000600052603260045260246000fd5b90600052602060002090600702016000820151816000015560208201518160010160006101000a81548173ffffffffffffffffffffffffffffffffffffffff021916908373ffffffffffffffffffffffffffffffffffffffff16021790555060408201518160010160146101000a81548160ff02191690836001811115612f9b577f4e487b7100000000000000000000000000000000000000000000000000000000600052602160045260246000fd5b0217905550606082015181600201556080820151816003015560a0820151816004015560c0820151816005015560e08201518160060155905050612fe960018361303d90919063ffffffff16565b915050612938565b613007600160055461305390919063ffffffff16565b6005819055505050505050505050565b600460009054906101000a900473ffffffffffffffffffffffffffffffffffffffff1681565b6000818361304b9190613a43565b905092915050565b600081836130619190613993565b905092915050565b6000818361307791906139e9565b905092915050565b604051806040016040528060008019168152602001600073ffffffffffffffffffffffffffffffffffffffff1681525090565b6000813590506130c181613ba9565b92915050565b6000815190506130d681613bc0565b92915050565b6000813590506130eb81613bd7565b92915050565b60008135905061310081613bee565b92915050565b60008135905061311581613bfe565b92915050565b6000806040838503121561312e57600080fd5b600061313c858286016130b2565b925050602061314d858286016130dc565b9150509250929050565b60006020828403121561316957600080fd5b6000613177848285016130c7565b91505092915050565b60006020828403121561319257600080fd5b60006131a0848285016130dc565b91505092915050565b600080604083850312156131bc57600080fd5b60006131ca858286016130dc565b92505060206131db858286016130b2565b9150509250929050565b600080604083850312156131f857600080fd5b6000613206858286016130dc565b9250506020613217858286016130f1565b9150509250929050565b60008060006060848603121561323657600080fd5b6000613244868287016130dc565b935050602061325586828701613106565b9250506040613266868287016130f1565b9150509250925092565b6000806000806080858703121561328657600080fd5b6000613294878288016130dc565b94505060206132a587828801613106565b93505060406132b687828801613106565b92505060606132c7878288016130f1565b91505092959194509250565b6000602082840312156132e557600080fd5b60006132f384828501613106565b91505092915050565b6000806040838503121561330f57600080fd5b600061331d85828601613106565b925050602061332e858286016130dc565b9150509250929050565b600061334483836135f0565b6101008301905092915050565b600061335d8383613692565b60408301905092915050565b61337281613a77565b82525050565b61338181613a77565b82525050565b600061339282613930565b61339c8185613960565b93506133a783613910565b8060005b838110156133d85781516133bf8882613338565b97506133ca83613946565b9250506001810190506133ab565b5085935050505092915050565b60006133f08261393b565b6133fa8185613971565b935061340583613920565b8060005b8381101561343657815161341d8882613351565b975061342883613953565b925050600181019050613409565b5085935050505092915050565b61344c81613a95565b82525050565b61345b81613a95565b82525050565b61346a81613adc565b82525050565b600061347d600f83613982565b91507f62616c616e636520746f6f206c6f7700000000000000000000000000000000006000830152602082019050919050565b60006134bd600a83613982565b91507f6f6e6c792061646d696e000000000000000000000000000000000000000000006000830152602082019050919050565b60006134fd601083613982565b91507f63616e6e6f7420747261646520444149000000000000000000000000000000006000830152602082019050919050565b600061353d601583613982565b91507f746f6b656e2062616c616e636520746f6f206c6f7700000000000000000000006000830152602082019050919050565b600061357d601383613982565b91507f6461692062616c616e636520746f6f206c6f77000000000000000000000000006000830152602082019050919050565b60006135bd601983613982565b91507f7468697320746f6b656e20646f6573206e6f74206578697374000000000000006000830152602082019050919050565b6101008201600082015161360760008501826136c1565b50602082015161361a6020850182613369565b50604082015161362d6040850182613461565b5060608201516136406060850182613443565b50608082015161365360808501826136c1565b5060a082015161366660a08501826136c1565b5060c082015161367960c08501826136c1565b5060e082015161368c60e08501826136c1565b50505050565b6040820160008201516136a86000850182613443565b5060208201516136bb6020850182613369565b50505050565b6136ca81613ad2565b82525050565b6136d981613ad2565b82525050565b60006020820190506136f46000830184613378565b92915050565b600060608201905061370f6000830186613378565b61371c6020830185613378565b61372960408301846136d0565b949350505050565b60006040820190506137466000830185613378565b61375360208301846136d0565b9392505050565b600060208201905081810360008301526137748184613387565b905092915050565b6000602082019050818103600083015261379681846133e5565b905092915050565b60006020820190506137b36000830184613452565b92915050565b60006040820190506137ce6000830185613452565b6137db6020830184613378565b9392505050565b600060208201905081810360008301526137fb81613470565b9050919050565b6000602082019050818103600083015261381b816134b0565b9050919050565b6000602082019050818103600083015261383b816134f0565b9050919050565b6000602082019050818103600083015261385b81613530565b9050919050565b6000602082019050818103600083015261387b81613570565b9050919050565b6000602082019050818103600083015261389b816135b0565b9050919050565b60006020820190506138b760008301846136d0565b92915050565b600060a0820190506138d260008301886136d0565b6138df60208301876136d0565b6138ec60408301866136d0565b6138f960608301856136d0565b61390660808301846136d0565b9695505050505050565b6000819050602082019050919050565b6000819050602082019050919050565b600081519050919050565b600081519050919050565b6000602082019050919050565b6000602082019050919050565b600082825260208201905092915050565b600082825260208201905092915050565b600082825260208201905092915050565b600061399e82613ad2565b91506139a983613ad2565b9250827fffffffffffffffffffffffffffffffffffffffffffffffffffffffffffffffff038211156139de576139dd613b37565b5b828201905092915050565b60006139f482613ad2565b91506139ff83613ad2565b9250817fffffffffffffffffffffffffffffffffffffffffffffffffffffffffffffffff0483118215151615613a3857613a37613b37565b5b828202905092915050565b6000613a4e82613ad2565b9150613a5983613ad2565b925082821015613a6c57613a6b613b37565b5b828203905092915050565b6000613a8282613ab2565b9050919050565b60008115159050919050565b6000819050919050565b6000819050613aad82613b95565b919050565b600073ffffffffffffffffffffffffffffffffffffffff82169050919050565b6000819050919050565b6000613ae782613a9f565b9050919050565b6000613af982613ad2565b91507fffffffffffffffffffffffffffffffffffffffffffffffffffffffffffffffff821415613b2c57613b2b613b37565b5b600182019050919050565b7f4e487b7100000000000000000000000000000000000000000000000000000000600052601160045260246000fd5b7f4e487b7100000000000000000000000000000000000000000000000000000000600052602160045260246000fd5b60028110613ba657613ba5613b66565b5b50565b613bb281613a77565b8114613bbd57600080fd5b50565b613bc981613a89565b8114613bd457600080fd5b50565b613be081613a95565b8114613beb57600080fd5b50565b60028110613bfb57600080fd5b50565b613c0781613ad2565b8114613c1257600080fd5b5056fea2646970667358221220f4d7cfe8ffce2c583d4fa7b36ecb880ae9308a6126e8780062f75ce5e84ab94864736f6c63430008000033",
  "immutableReferences": {},
  "source": "//SPDX-License-Identifier: UNLICENSED\npragma solidity ^0.8.0;\npragma experimental ABIEncoderV2;\nimport \"@openzeppelin/contracts/token/ERC20/ERC20.sol\";\nimport \"@openzeppelin/contracts/utils/math/SafeMath.sol\";\n\ncontract Dex{\n    using SafeMath for uint;\n    struct Token{\n        bytes32 ticker;\n        address tokenAddress;\n    }\n    enum Side{\n        BUY,\n        SELL\n    }\n    struct Order{\n        uint id;\n        address trader;\n        Side side;\n        bytes32 ticker;\n        uint amount;\n        uint filled;\n        uint price;\n        uint date;\n    }\n\n    mapping(bytes32 => Token) public tokens;\n    bytes32[] public tokenList;\n    mapping(address => mapping(bytes32 => uint)) public traderBalances;\n    mapping(bytes32 => mapping(uint => Order[])) orderBook;\n    address public admin;\n    uint public nextOrderId;\n    uint public nextTradeId;\n    bytes32 constant DAI = bytes32('DAI');\n\n    event NewTrade(\n        uint tradeId,\n        uint orderId,\n        bytes32 indexed ticker,\n        address indexed trader1,\n        address indexed trader2,\n        uint amount,\n        uint price,\n        uint date\n    );\n\n    constructor() {\n        admin = msg.sender;\n    }\n    function getOrders(\n    bytes32 ticker, \n    Side side) \n    external \n    view\n    returns(Order[] memory) {\n        return orderBook[ticker][uint(side)];\n    }\n    function getTokens() \n      external \n      view \n      returns(Token[] memory) {\n      Token[] memory _tokens = new Token[](tokenList.length);\n      for (uint i = 0; i < tokenList.length; i++) {\n        _tokens[i] = Token(\n          tokens[tokenList[i]].ticker,\n          tokens[tokenList[i]].tokenAddress\n        );\n      }\n      return _tokens;\n    }\n    function addToken(bytes32 ticker, address tokenAddress) external onlyAdmin(){\n        tokens[ticker] = Token(ticker,tokenAddress);\n        tokenList.push(ticker);\n    }\n\n    function deposit(uint amount, bytes32 ticker) external tokenExist(ticker) {\n        IERC20(tokens[ticker].tokenAddress).transferFrom(msg.sender, address(this), amount);\n        traderBalances[msg.sender][ticker] = traderBalances[msg.sender][ticker].add(amount);\n    }\n\n    function withdraw(uint amount, bytes32 ticker) external tokenExist(ticker){\n        require(traderBalances[msg.sender][ticker] >=amount,\"balance too low\");\n        traderBalances[msg.sender][ticker] = traderBalances[msg.sender][ticker].sub(amount);\n        IERC20(tokens[ticker].tokenAddress).transfer(msg.sender, amount);\n    }\n\n    function createLimitOrder(bytes32 ticker, uint amount, uint price, Side side) external tokenIsNotDai(ticker) tokenExist(ticker) {\n        if(side == Side.SELL){\n            require(traderBalances[msg.sender][ticker] >= amount, 'token balance too low');\n        }else{\n            require(traderBalances[msg.sender][DAI] >= amount.mul(price), 'dai balance too low');\n        }\n        Order[] storage orders = orderBook[ticker][uint(side)];\n        orders.push(Order(nextOrderId,msg.sender,side,ticker,amount,0,price,block.timestamp));\n        //bubble sort to do sizetime sorting\n        uint i = orders.length > 0 ? orders.length - 1 : 0;\n        while(i > 0){\n            if(side == Side.BUY && orders[i - 1].price > orders[i].price){\n                break;\n            }\n            if(side == Side.SELL && orders[i - 1].price < orders[i].price){\n                break;\n            }\n            Order memory order = orders[i - 1];\n            orders[i-1] = orders[i];\n            orders[i] = order;\n            i = i.sub(1);\n        }\n        nextOrderId = nextOrderId.add(1);\n    }\n\n    function createMarketOrder(bytes32 ticker, uint amount, Side side) tokenExist(ticker) tokenIsNotDai(ticker) external{\n        if(side == Side.SELL){\n            require(traderBalances[msg.sender][ticker] >= amount, 'token balance too low');\n        }\n        Order[] storage orders = orderBook[ticker][uint(side == Side.BUY ? Side.SELL : Side.BUY)];\n        uint i;\n        uint remaining = amount;\n        while(i < orders.length && remaining > 0){\n            uint available = orders[i].amount.sub(orders[i].filled);\n            uint matched = (remaining > available) ? available : remaining;\n            remaining = remaining.sub(matched);\n            orders[i].filled = orders[i].filled.add(matched);\n            emit NewTrade(nextTradeId, orders[i].id, ticker, orders[i].trader,msg.sender, matched, orders[i].price, block.timestamp);\n            if(side == Side.SELL){\n                traderBalances[msg.sender][ticker] = traderBalances[msg.sender][ticker].sub(matched);\n                traderBalances[msg.sender][DAI] = traderBalances[msg.sender][DAI].add(matched.mul(orders[i].price)); \n                traderBalances[orders[i].trader][ticker] = traderBalances[orders[i].trader][ticker].add(matched);\n                traderBalances[orders[i].trader][DAI] = traderBalances[orders[i].trader][DAI].sub(matched.mul(orders[i].price)); \n            }\n            if(side == Side.BUY){\n                require(traderBalances[msg.sender][DAI] >= matched.mul(orders[i].price), 'dai balance too low');\n                traderBalances[msg.sender][ticker] = traderBalances[msg.sender][ticker].add(matched);\n                traderBalances[msg.sender][DAI] = traderBalances[msg.sender][DAI].sub(matched.mul(orders[i].price)); \n                traderBalances[orders[i].trader][ticker] = traderBalances[orders[i].trader][ticker].sub(matched);\n                traderBalances[orders[i].trader][DAI] = traderBalances[orders[i].trader][DAI].add(matched.mul(orders[i].price)); \n            }\n            nextTradeId = nextTradeId.add(1);\n            i = i.add(1);\n            \n        }\n        i = 0;\n        while(i < orders.length && orders[i].filled == orders[i].amount){\n            for(uint j = i; j < orders.length - 1; j++){\n                orders[j] = orders[j + 1];\n            }\n            orders.pop();\n            i = i.add(1);\n        }\n    }\n\n\n    modifier tokenIsNotDai(bytes32 ticker){\n        require(ticker != DAI, 'cannot trade DAI');\n        _;\n    }\n\n    modifier tokenExist(bytes32 ticker){\n        require(tokens[ticker].tokenAddress != address(0), \"this token does not exist\");\n        _;\n    }\n\n    modifier onlyAdmin(){\n        require(msg.sender == admin, 'only admin');\n        _;\n    }\n\n}",
  "sourcePath": "/Users/dexter/kranthi/dapps/dex/contracts/Dex.sol",
  "compiler": {
    "name": "solc",
    "version": "0.8.0+commit.c7dfd78e.Emscripten.clang"
  },
  "schemaVersion": "3.4.4",
  "updatedAt": "2022-01-23T13:30:57.991Z",
  "networkType": "ethereum",
  "devdoc": {
    "kind": "dev",
    "methods": {},
    "version": 1
  },
  "userdoc": {
    "kind": "user",
    "methods": {},
    "version": 1
  }
}